:020000040800F2
:100000001808002011080008950600089706000847
:10001000990600089B0600089D06000800000000E5
:100020000000000000000000000000009F06000823
:10003000A106000800000000A3060008A5060008AD
:100040002D080008310800083508000839080008A4
:100050003D08000841080008450800084908000854
:100060004D08000851080008550800085908000804
:100070005D080008610800086508000869080008B4
:100080006D08000871080008750800087908000864
:100090007D08000881080008850800088908000814
:1000A0008D080008910800089508000899080008C4
:1000B0009D080008A1080008A5080008A908000874
:1000C000AD080008B1080008B5080008B908000824
:1000D000BD080008A7060008C1080008C5080008F8
:1000E000C9080008CD080008D108000878B585B017
:1000F00005000C0000200020002000200020A08926
:1001000000282E00298A4CF6FF700140E088014348
:100110002982A9894EF6F3100140A2882089024362
:10012000608902431143A981A98A4FF6FF4001402B
:10013000A0890143A982684600F0ACF81B488642BA
:1001400001D1039900E00299A889000406D519207D
:10015000414320684000B1FBF0F205E01920414323
:1001600020688000B1FBF0F26420B2FBF0F10901DD
:100170000B001B09642000FB1322A889000408D58A
:10018000D00032306422B0FBF2F010F007000143DF
:1001900007E0100132306422B0FBF2F010F00F00E3
:1001A0000143298106B070BD000000000038014005
:1001B000C9B2002904D0818951F40051818104E041
:1001C00082894DF6FF710A408281704710B4002386
:1001D0000023002300230B0040F66A149BB2A342C5
:1001E0000B00DBB25B09DBB289B211F01F01012405
:1001F00014FA01F1012B01D10C3004E0022B01D1E2
:10020000103000E01430D2B2002A03D0026811434B
:10021000016003E0026832EA0101016010BC70472E
:10022000C905C90D818070478088C005C00D704721
:1002300010B400220022002200220A0040F66A13B5
:1002400092B29A420B00DBB25B09DBB20A0092B2B7
:1002500012F01F02012414FA02F2012B02D1838949
:100260001A4006E0022B02D1038A1A4001E0838A79
:100270001A4089B2090A89B214FA01F100880140D2
:10028000002A03D0002901D0012000E00020C0B2E4
:1002900010BC704710B400210021002100212F4A1A
:1002A000116811F00C01002904D0042905D0082997
:1002B00006D01EE02A4901601DE0294901601AE0CC
:1002C000136813F47013116811F480319B0C9B1C9C
:1002D000002903D123494B43036009E011688903D6
:1002E00003D520494B43036002E01D494B430360A3
:1002F00001E01B490160116811F0F00109091A4B76
:10030000595C0468CC404460116811F4E061090A4A
:10031000595C4468CC408460116811F46051C90A8A
:10032000595C4368CB40C360116811F44041890BAC
:100330000E4A515CC268B2FBF1F1016110BC70471A
:10034000C9B2002904D00A490A681043086004E0D1
:1003500007490A6832EA000008607047041002404A
:1003600000127A0000093D0000000020100000206B
:100370001810024080B53E49086850F0010008603E
:100380003C4A13683C48034013600B683B480340F9
:100390000B60086830F480200860106830F4FE00BC
:1003A00010605FF41F003649086000F005F85FF048
:1003B00000603449086001BD80B500F001F801BD5E
:1003C00082B000200190002000902949086850F474
:1003D00080300860086810F4003000900198401CDC
:1003E00001900098002803D10198B0F5A06FF1D1D9
:1003F0000868800302D50120009001E000200090F1
:100400000098012831D12048026852F010020260A1
:100410000268920892000260026852F002020260D2
:1004200014480268026002680260026852F4806246
:100430000260026832F47C120260026852F4E81230
:1004400002600A6852F080720A600A689201FCD564
:100450000168890889000160016851F002010160AA
:10046000016811F00C010829FAD102B070470000B0
:1004700000100240041002400000FFF8FFFFF6FEEB
:100480000810024008ED00E00020024080B54FF463
:10049000A06000F05FF825208DF8000001208DF8A5
:1004A000010001208DF8020001208DF8030068464C
:1004B00000F055F801BD18B585B001210420FFF703
:1004C0003FFF01214FF48040FFF73AFF4FF40070E7
:1004D000ADF8000018208DF8030003208DF802000D
:1004E0001A4C6946200000F075F84FF48060ADF8B2
:1004F000000004208DF803006946200000F06AF82F
:100500004FF4165001900020ADF808000020ADF81F
:100510000A000020ADF80C000020ADF810000C20FF
:10052000ADF80E000A4C01A92000FFF7DFFDFFF730
:10053000ADFF012240F225512000FFF747FE0121C7
:100540002000FFF735FE06B010BD00000008014096
:10055000003801401A4908431A49086070470021D1
:1005600000210F23C17800291ED01649096811F413
:10057000E061D1F5E061090AD1F10402CB40417894
:1005800011FA02F281780B401A4312010E490378E6
:10059000CA540121027812F01F0291400B4A0078E0
:1005A000401142F8201009E00121027812F01F02E8
:1005B0009140074A0078401142F82010704700002F
:1005C0000000FA050CED00E000E400E000E100E0CE
:1005D00080E100E0F0B4002200220022002200228C
:1005E0000022CB7813F00F03CA78D20601D58A789F
:1005F00013430A78120620D0066800241AE0CA784D
:10060000482A16D1A740076113E0012717FA04F51D
:100610000A882A40AA420CD1A2000F259540AE4379
:1006200013FA02F232431600CA78282AE7D1A7400B
:100630004761641C082CE8D306600A88B2F5807F05
:1006400026DB4668002420E0012714F1080517FA8C
:1006500005F50A882A40AA4216D1A2000F25954026
:10066000AE4313FA02F232431600CA78282A04D1A4
:1006700014F1080217FA02F24261CA78482A03D13B
:1006800014F1080297400761641C082CDCD3466013
:10069000F0BC70477047FEE7FEE7FEE7FEE77047F5
:1006A00070477047704738B5094C40F2255120001B
:1006B000FFF7BEFD002809D0064D2000FFF7B4FD6E
:1006C0002870297889B22000FFF7AAFD31BD00000B
:1006D000003801401400002080B501217D20FFF783
:1006E0002FFE01BD80B50420ADF8000003208DF879
:1006F000020010208DF8030069460248FFF76AFFE8
:1007000001BD00000008014080B5FFF7E5FFFFF7DD
:10071000E9FF01BD0100481E0029FBD1704780B5EB
:10072000FFF7F2FFFFF7C7FE01BD80B5FFF7F7FF48
:100730000448016891F0040101605FF47410FFF750
:10074000E9FFF5E70C08014030B450F8041B79B11B
:100750000268436802440830DC0744BFA9F1010481
:10076000E31852F8045B43F8045B091FF9D1ECE786
:1007700030BC704710B5074979441831064C7C44A9
:10078000163404E00A68081D114488470146A14256
:10079000F8D110BD0800000018000000ADFFFFFFF9
:1007A00018000000540000000000002000000000BD
:1007B00000F00DF8002801D0FFF7DCFFAFF3008058
:1007C0000020AFF30080FFF7B0FF00F002F8012037
:1007D000704700F001B800000746384600F002F804
:1007E000FBE7000080B5AFF30080024A110018203B
:1007F000ABBEFBE72600020000000000010203047C
:1008000001020304060708090204060800000000AC
:100810000148804701480047750300082108000887
:10082000AFF30080AFF30080FFF7C2FFFFF7FEBF1A
:10083000FFF7FEBFFFF7FEBFFFF7FEBFFFF7FEBFEC
:10084000FFF7FEBFFFF7FEBFFFF7FEBFFFF7FEBFDC
:10085000FFF7FEBFFFF7FEBFFFF7FEBFFFF7FEBFCC
:10086000FFF7FEBFFFF7FEBFFFF7FEBFFFF7FEBFBC
:10087000FFF7FEBFFFF7FEBFFFF7FEBFFFF7FEBFAC
:10088000FFF7FEBFFFF7FEBFFFF7FEBFFFF7FEBF9C
:10089000FFF7FEBFFFF7FEBFFFF7FEBFFFF7FEBF8C
:1008A000FFF7FEBFFFF7FEBFFFF7FEBFFFF7FEBF7C
:1008B000FFF7FEBFFFF7FEBFFFF7FEBFFFF7FEBF6C
:1008C000FFF7FEBFFFF7FEBFFFF7FEBFFFF7FEBF5C
:0408D000FFF7FEBF71
:0400000508000821C6
:00000001FF
